{
  "_format": "hh-sol-artifact-1",
  "contractName": "PingReceiver",
  "sourceName": "contracts/ping-reciever.sol",
  "abi": [
    {
      "anonymous": false,
      "inputs": [
        {
          "indexed": false,
          "internalType": "bytes32",
          "name": "sender",
          "type": "bytes32"
        }
      ],
      "name": "PongEmitted",
      "type": "event"
    },
    {
      "inputs": [
        {
          "internalType": "bytes32",
          "name": "sender",
          "type": "bytes32"
        },
        {
          "internalType": "bytes",
          "name": "",
          "type": "bytes"
        }
      ],
      "name": "processVaraMessage",
      "outputs": [
        {
          "internalType": "bool",
          "name": "",
          "type": "bool"
        }
      ],
      "stateMutability": "nonpayable",
      "type": "function"
    }
  ],
  "bytecode": "0x608060405234801561001057600080fd5b5061023f806100206000396000f3fe608060405234801561001057600080fd5b506004361061002b5760003560e01c8063bd3f513814610030575b600080fd5b61004a60048036038101906100459190610149565b610060565b60405161005791906101c4565b60405180910390f35b60007fc44ef3954b2c4cf3d82b4d2dda588c48b05f64a42207efd9f512f934ebfb1fcf8460405161009191906101ee565b60405180910390a1600190509392505050565b600080fd5b600080fd5b6000819050919050565b6100c1816100ae565b81146100cc57600080fd5b50565b6000813590506100de816100b8565b92915050565b600080fd5b600080fd5b600080fd5b60008083601f840112610109576101086100e4565b5b8235905067ffffffffffffffff811115610126576101256100e9565b5b602083019150836001820283011115610142576101416100ee565b5b9250929050565b600080600060408486031215610162576101616100a4565b5b6000610170868287016100cf565b935050602084013567ffffffffffffffff811115610191576101906100a9565b5b61019d868287016100f3565b92509250509250925092565b60008115159050919050565b6101be816101a9565b82525050565b60006020820190506101d960008301846101b5565b92915050565b6101e8816100ae565b82525050565b600060208201905061020360008301846101df565b9291505056fea2646970667358221220b6d27beb3a9cb2261eb580e584b8e3110c5d9d6c51520fc4f67a2848e4d272aa64736f6c63430008180033",
  "linkReferences": {},
  "deployedLinkReferences": {}
}